{
  "_format": "hh-sol-artifact-1",
  "contractName": "System_wallet",
  "sourceName": "contracts/system/Wallet.sol",
  "abi": [
    {
      "inputs": [
        {
          "internalType": "address",
          "name": "target",
          "type": "address"
        }
      ],
      "name": "AddressEmptyCode",
      "type": "error"
    },
    {
      "inputs": [
        {
          "internalType": "address",
          "name": "implementation",
          "type": "address"
        }
      ],
      "name": "ERC1967InvalidImplementation",
      "type": "error"
    },
    {
      "inputs": [],
      "name": "ERC1967NonPayable",
      "type": "error"
    },
    {
      "inputs": [],
      "name": "EnforcedPause",
      "type": "error"
    },
    {
      "inputs": [],
      "name": "ExpectedPause",
      "type": "error"
    },
    {
      "inputs": [],
      "name": "FailedCall",
      "type": "error"
    },
    {
      "inputs": [],
      "name": "InsufficientFunds",
      "type": "error"
    },
    {
      "inputs": [],
      "name": "InvalidInitialization",
      "type": "error"
    },
    {
      "inputs": [],
      "name": "NotInitializing",
      "type": "error"
    },
    {
      "inputs": [],
      "name": "ReentrancyGuardReentrantCall",
      "type": "error"
    },
    {
      "inputs": [],
      "name": "UUPSUnauthorizedCallContext",
      "type": "error"
    },
    {
      "inputs": [
        {
          "internalType": "bytes32",
          "name": "slot",
          "type": "bytes32"
        }
      ],
      "name": "UUPSUnsupportedProxiableUUID",
      "type": "error"
    },
    {
      "inputs": [],
      "name": "ZeroAddress",
      "type": "error"
    },
    {
      "anonymous": false,
      "inputs": [
        {
          "indexed": false,
          "internalType": "address",
          "name": "newAccessControl",
          "type": "address"
        }
      ],
      "name": "AccessControlChanged",
      "type": "event"
    },
    {
      "anonymous": false,
      "inputs": [
        {
          "indexed": true,
          "internalType": "address",
          "name": "caller",
          "type": "address"
        }
      ],
      "name": "ContractPaused",
      "type": "event"
    },
    {
      "anonymous": false,
      "inputs": [
        {
          "indexed": true,
          "internalType": "address",
          "name": "caller",
          "type": "address"
        }
      ],
      "name": "ContractUnpaused",
      "type": "event"
    },
    {
      "anonymous": false,
      "inputs": [
        {
          "indexed": false,
          "internalType": "uint64",
          "name": "version",
          "type": "uint64"
        }
      ],
      "name": "Initialized",
      "type": "event"
    },
    {
      "anonymous": false,
      "inputs": [
        {
          "indexed": false,
          "internalType": "address",
          "name": "account",
          "type": "address"
        }
      ],
      "name": "Paused",
      "type": "event"
    },
    {
      "anonymous": false,
      "inputs": [
        {
          "indexed": false,
          "internalType": "address",
          "name": "account",
          "type": "address"
        }
      ],
      "name": "Unpaused",
      "type": "event"
    },
    {
      "anonymous": false,
      "inputs": [
        {
          "indexed": true,
          "internalType": "address",
          "name": "implementation",
          "type": "address"
        }
      ],
      "name": "Upgraded",
      "type": "event"
    },
    {
      "anonymous": false,
      "inputs": [
        {
          "indexed": true,
          "internalType": "address",
          "name": "from",
          "type": "address"
        },
        {
          "indexed": true,
          "internalType": "uint256",
          "name": "amount",
          "type": "uint256"
        }
      ],
      "name": "contract_received_fund",
      "type": "event"
    },
    {
      "anonymous": false,
      "inputs": [
        {
          "indexed": true,
          "internalType": "address",
          "name": "to",
          "type": "address"
        },
        {
          "indexed": true,
          "internalType": "uint256",
          "name": "amount",
          "type": "uint256"
        }
      ],
      "name": "contract_transfered_fund",
      "type": "event"
    },
    {
      "stateMutability": "payable",
      "type": "fallback"
    },
    {
      "inputs": [],
      "name": "UPGRADE_INTERFACE_VERSION",
      "outputs": [
        {
          "internalType": "string",
          "name": "",
          "type": "string"
        }
      ],
      "stateMutability": "view",
      "type": "function"
    },
    {
      "inputs": [],
      "name": "accessControl",
      "outputs": [
        {
          "internalType": "contract IAccessControl",
          "name": "",
          "type": "address"
        }
      ],
      "stateMutability": "view",
      "type": "function"
    },
    {
      "inputs": [
        {
          "internalType": "address",
          "name": "_newAccesControl",
          "type": "address"
        }
      ],
      "name": "changeAccessControl",
      "outputs": [],
      "stateMutability": "nonpayable",
      "type": "function"
    },
    {
      "inputs": [
        {
          "internalType": "address",
          "name": "_accessControl",
          "type": "address"
        }
      ],
      "name": "initialize",
      "outputs": [],
      "stateMutability": "nonpayable",
      "type": "function"
    },
    {
      "inputs": [],
      "name": "pause",
      "outputs": [],
      "stateMutability": "nonpayable",
      "type": "function"
    },
    {
      "inputs": [],
      "name": "paused",
      "outputs": [
        {
          "internalType": "bool",
          "name": "",
          "type": "bool"
        }
      ],
      "stateMutability": "view",
      "type": "function"
    },
    {
      "inputs": [],
      "name": "proxiableUUID",
      "outputs": [
        {
          "internalType": "bytes32",
          "name": "",
          "type": "bytes32"
        }
      ],
      "stateMutability": "view",
      "type": "function"
    },
    {
      "inputs": [
        {
          "internalType": "address payable",
          "name": "_to",
          "type": "address"
        },
        {
          "internalType": "uint256",
          "name": "_amount",
          "type": "uint256"
        }
      ],
      "name": "transfer",
      "outputs": [],
      "stateMutability": "nonpayable",
      "type": "function"
    },
    {
      "inputs": [],
      "name": "unpause",
      "outputs": [],
      "stateMutability": "nonpayable",
      "type": "function"
    },
    {
      "inputs": [
        {
          "internalType": "address",
          "name": "newImplementation",
          "type": "address"
        },
        {
          "internalType": "bytes",
          "name": "data",
          "type": "bytes"
        }
      ],
      "name": "upgradeToAndCall",
      "outputs": [],
      "stateMutability": "payable",
      "type": "function"
    },
    {
      "stateMutability": "payable",
      "type": "receive"
    }
  ],
  "bytecode": "0x60a0806040523461004e573060805260017f9b779b17422d0df92223018b32b4d1fa46e071723d6817e2486d003becc55f0055610cbd908161005482396080518181816106e701526107c60152f35b600080fdfe6080604081815260048036101561006c575b50505036156100435734337f9a910e4510aced4a032c4797a04f4c9b32316bcde4dfc60c7c73d88f936428c8600080a3005b34337f9a910e4510aced4a032c4797a04f4c9b32316bcde4dfc60c7c73d88f936428c8600080a3005b600092833560e01c90816313007d5514610aa4575080633f4ba83a146109c05780634f1ef2861461074b57806352d1902d146106d25780635c975abb1461068b5780638456cb59146105825780639387730c146104b6578063a9059cbb146102c4578063ad3cb1cc146102265763c4d66de8036100115734610222576020366003190112610222576100fc610ac8565b907ff0c57e16840df040f15088dc2f81fe391c3923bec73e23a9662efc9c229c6a0091825460ff81861c16159267ffffffffffffffff82168015908161021a575b6001149081610210575b159081610207575b506101f9575067ffffffffffffffff1981166001178455826101da575b5061017681610b8e565b84546001600160a01b0319166001600160a01b0391909116178455610199578280f35b805468ff00000000000000001916905551600181527fc7f505b2f371ae2175ee4913f4499e1f2633a7b5936321eed1cdaeb6115181d290602090a138808280f35b68ffffffffffffffffff1916680100000000000000011783553861016c565b855163f92ee8a960e01b8152fd5b9050153861014f565b303b159150610147565b85915061013d565b8280fd5b50346102225782600319360112610222578151908282019082821067ffffffffffffffff8311176102b15750825260058152602090640352e302e360dc1b6020820152825193849260208452825192836020860152825b84811061029b57505050828201840152601f01601f19168101030190f35b818101830151888201880152879550820161027d565b634e487b7160e01b855260419052602484fd5b5091346104b357816003193601126104b3576001600160a01b038335818116908190036102225760243590828454169285518094638da5cb5b60e01b8252818960209788935afa9081156104a957906103289291879161047c575b50163314610b56565b7f9b779b17422d0df92223018b32b4d1fa46e071723d6817e2486d003becc55f0092600284541461046c5760028455331561042a57811561041a5782471060001461037d57855163356680b760e01b81528790fd5b86908580808087875af13d15610415573d61039781610b1b565b906103a48a519283610ae3565b815287833d92013e5b156103e157505060019394507fae538a1b9462f6288da1c1912c6d7e22fc226dff723d1cc897cfc7727255ea708580a35580f35b865162461bcd60e51b815291820152600f60248201526e1d1c985b9cd9995c8819985a5b1959608a1b604482015260649150fd5b6103ad565b855163d92e233d60e01b81528790fd5b8660649187519162461bcd60e51b8352820152601d60248201527f63616c6c65722069732063616e74206265207a65726f206164647220210000006044820152fd5b8551633ee5aeb560e01b81528790fd5b61049c9150863d88116104a2575b6104948183610ae3565b810190610b37565b3861031f565b503d61048a565b87513d88823e3d90fd5b80fd5b5034610222576020366003190112610222576104d0610ac8565b83548351638da5cb5b60e01b815290926001600160a01b039291906020908290818688165afa90811561057857916105398460209695937f497acaa34ac19c2a2a579ad43eca493b4fea820459e254e9383e7dda216b0f0498958a916105615750163314610b56565b61054281610b8e565b1680926bffffffffffffffffffffffff60a01b1617855551908152a180f35b61049c9150883d8a116104a2576104948183610ae3565b85513d88823e3d90fd5b503461022257826003193601126102225782548251638da5cb5b60e01b8152906001600160a01b039060209083908590829085165afa8015610681576105d19286916106685750163314610b56565b7fcd5ed15c6e187e77e9aee88184c21f4f2182ab5827cb3b7e07fbedcd63f033009081549060ff821661065a575060ff19166001179055513381527f62e78cea01bee320cd4e420270b5ea74000d11b0c9f74754ebdbfc544b05a25890602090a1337f81990fd9a5c552b8e3677917d8a03c07678f0d2cb68f88b634aca2022e9bd19f8280a280f35b835163d93c066560e01b8152fd5b61049c915060203d6020116104a2576104948183610ae3565b84513d87823e3d90fd5b5050346106ce57816003193601126106ce5760209060ff7fcd5ed15c6e187e77e9aee88184c21f4f2182ab5827cb3b7e07fbedcd63f03300541690519015158152f35b5080fd5b5091346104b357806003193601126104b357507f00000000000000000000000000000000000000000000000000000000000000006001600160a01b0316300361073e57602090517f360894a13ba1a3210667c828492db98dca3e2076cc3735a920a3ca505d382bbc8152f35b5163703e46dd60e11b8152fd5b50908060031936011261022257610760610ac8565b9060249384359267ffffffffffffffff84116106ce57366023850112156106ce57838501359061078f82610b1b565b9161079c85519384610ae3565b80835260209536898383010111610956578185928a89930183870137840101526001600160a01b037f00000000000000000000000000000000000000000000000000000000000000008116308114908115610992575b5061098257868682865416875192838092638da5cb5b60e01b82525afa9081156109785761082b91839187916109615750163314610b56565b84516352d1902d60e01b815290821695808289818a5afa918291869361092d575b505061086757505050505191634c9c8ce360e01b8352820152fd5b9093919492967f360894a13ba1a3210667c828492db98dca3e2076cc3735a920a3ca505d382bbc918281036109185750843b15610904575080546001600160a01b0319168317905551907fbc7cd75a20ee27fd9adebab32041f755214dbc6bffa90cc0225b39da2e5c2d3b8680a28251156108eb57506108e79250610bf3565b5080f35b915050346108f857505080f35b63b398979f60e01b8152fd5b8251634c9c8ce360e01b8152808801859052fd5b8351632a87526960e21b815280890191909152fd5b9080929350813d831161095a575b6109458183610ae3565b81010312610956575190388061084c565b8480fd5b503d61093b565b61049c9150893d8b116104a2576104948183610ae3565b86513d87823e3d90fd5b845163703e46dd60e11b81528790fd5b9050817f360894a13ba1a3210667c828492db98dca3e2076cc3735a920a3ca505d382bbc54161415386107f2565b503461022257826003193601126102225782548251638da5cb5b60e01b8152906001600160a01b039060209083908590829085165afa801561068157610a0f9286916106685750163314610b56565b7fcd5ed15c6e187e77e9aee88184c21f4f2182ab5827cb3b7e07fbedcd63f033009081549060ff821615610a96575060ff19169055513381527f5db9ee0a495bf2e6ff9c91a7834c1ba4fdd244a5e8aa4e537bd38aeae4b073aa90602090a1337f5b65b0c1363b3003db9bcc5e1fd8805a6d6bf5bf6dc9d3431ee4494cd7d117668280a280f35b8351638dfc202b60e01b8152fd5b8490346106ce57816003193601126106ce5790546001600160a01b03168152602090f35b600435906001600160a01b0382168203610ade57565b600080fd5b90601f8019910116810190811067ffffffffffffffff821117610b0557604052565b634e487b7160e01b600052604160045260246000fd5b67ffffffffffffffff8111610b0557601f01601f191660200190565b90816020910312610ade57516001600160a01b0381168103610ade5790565b15610b5d57565b60405162461bcd60e51b81526020600482015260096024820152682737ba1037bbb732b960b91b6044820152606490fd5b6001600160a01b031615610b9e57565b60405162461bcd60e51b815260206004820152602760248201527f416363657373436f6e74726f6c3a207a65726f2061646472657373206e6f7420604482015266185b1b1bddd95960ca1b6064820152608490fd5b9060008091602081519101845af48080610c74575b15610c295750506040513d81523d6000602083013e60203d82010160405290565b15610c5057604051639996b31560e01b81526001600160a01b039091166004820152602490fd5b3d15610c62576040513d6000823e3d90fd5b60405163d6bda27560e01b8152600490fd5b503d151580610c085750813b1515610c0856fea264697066735822122032f56c16a048e798155de8c72aa676e1184ffc0ca5fa779f4ebe97e18ef785a664736f6c63430008160033",
  "linkReferences": {},
  "deployedLinkReferences": {}
}